:020000040800F2
:1000000068090020412F00081D2F00081F2F00083D
:10001000212F0008232F0008252F000800000000D2
:10002000000000000000000000000000272F000872
:10003000292F0008000000002B2F00082D2F00089A
:10004000752F0008792F00087D2F0008812F0008E8
:10005000852F0008892F00088D2F0008912F000898
:10006000952F0008992F00089D2F0008A12F000848
:10007000A52F0008A92F0008AD2F0008B12F0008F8
:10008000B52F0008B92F0008BD2F0008C12F0008A8
:10009000C52F0008C92F0008CD2F0008D12F000858
:1000A000D52F0008D92F0008DD2F0008E12F000808
:1000B000E52F0008E92F0008ED2F0008F12F0008B8
:1000C000F52F0008F92F0008FD2F00080130000867
:1000D00005300008093000080D3000081130000814
:1000E00015300008193000081D30000821300008C4
:1000F00025300008293000082D3000083130000874
:1001000035300008393000083D3000084130000823
:1001100045300008493000084D30000851300008D3
:1001200055300008593000085D3000086130000883
:1001300065300008693000086D3000087130000833
:1001400075300008793000087D30000881300008E3
:1001500085300008893000088D3000089130000893
:1001600095300008993000089D300008A130000843
:10017000A5300008A9300008AD30000800000000DC
:10018000B1300008B5300008B9300008BD300008B3
:10019000C1300008C5300008C9300008CD30000863
:1001A000D1300008D5300008D9300008DD30000813
:1001B000E1300008E5300008E9300008ED300008C3
:1001C000F1300008F5300008F8B58AB0DFF838647F
:1001D00000F078FA00F0CBF800F01CF9DFF82C04FE
:1001E00001213060002271604FF400003282002350
:1001F00080213062E1228DF800308DF80110304608
:100200008DF8022006F589658DF80330DFF800448B
:10021000ADF804300027C6F814D0B361F36100F0E4
:100220005DFADFF8F013002229604FF4E1306860D6
:100230000C21AA602846EA602A616961AA61EA6124
:100240002A626A6200F032FC4FF0A0400621B064DE
:100250000020B0650120F164022200217066706701
:1002600006F148007265F1653266B166F166B16704
:1002700000F02AFE6846102100F084FEE6480021C6
:100280002060E648A062012261602046A7602161EB
:10029000A1612162E162E160E2612163626100F0DB
:1002A00075FE0121032201916946009220460297C2
:1002B000DB4F00F07DFF684600210022002380E82C
:1002C0000E0003A81C2100F05DFE0120002140F279
:1002D000CF722F676867A967EA6706F59965296095
:1002E000802106F59766A960304601F0A2F8002249
:1002F000694600923046029201F0DCF9602100224A
:10030000039103A90492304605920792082201F056
:10031000F9F9304601F0A5FB0821304601F096F8C6
:1003200004E0D32802D3286C401C2864204600F047
:1003300036F92863C0F1FA0000EB8000314680B244
:1003400000F08FF90821304601F080F8286BB428BE
:1003500002D2696B491C6963962802D2A96B491CB9
:10036000A9636428DDD2E86B401CE863DEE700B5D2
:10037000B3B006A8302100F005FE01A8142100F05A
:1003800001FE12A8842100F0FDFD01F013FCA54838
:10039000016841F080510160006800F080500090D9
:1003A0000099A148026822F4404242F4804202606F
:1003B0000368012206A803F44043009300990692C3
:1003C0004FF4800202210D920C91042148220E91DB
:1003D0000F924FF4A0230221032207931091119250
:1003E00001F0F0FB0F21022201914FF48051002314
:1003F000049102920221039301A8059301F06BFD81
:100400008A490022129112A82592319201F038FEF9
:1004100033B000BD38B586B06846142100F0B2FD97
:100420008348046844F0040404600568814C05F0C6
:1004300004050595059902687F4D42F0800202602F
:10044000036803F0800300F053F842F001020260F9
:10045000036803F0010300F04BF842F0020202606F
:10046000036803F0020300F043F842F00802026060
:10047000036803F0080300F03BF842F0400202601A
:100480000068002200F040000590059920464FF4D6
:10049000814102F00EF900224021284602F009F9BC
:1004A0004FF40051654A009100230192694602937E
:1004B000634802F023F84FF48141012200F051F823
:1004C0000393002402F01AF84022012300926946A7
:1004D000019328460294039402F010F880210194BD
:1004E000009169460294284602F008F807B030BD32
:1004F00005930599026870477FB504466846102148
:10050000112500F03FFD072100F041F808B100205F
:1005100003E0192002F0ECF8012004B070BD30B502
:1005200085B068461421082400F02CFD00940021B9
:1005300001250291434C01956946204601F0DEFFFA
:1005400000220121204602F0B4F8192002F0D0F870
:100550000821032200F005F801F0D0FF012005B0CA
:1005600030BD0091002301926946029320467047F6
:100570007FB5044668461021032500F003FD0021E5
:1005800000F005F8401E8041C00F04B070BD012688
:100590000291694600952046019600F009BE38B5E3
:1005A0000446FFF7A9FFFFF7BAFF2046FFF7E0FF79
:1005B00000F051F800F04BF80028FBD1144D00F08A
:1005C0004DF800F041F800F046F800F040F800283F
:1005D000FBD100F043F800F037F800F03CF800F0F1
:1005E00036F80028FBD100F039F800F02DF800F0C3
:1005F00032F800F02CF80028FBD100F02FF8054667
:1006000000F022F8A80832BD10000020008002404F
:100610001C05002000480040002001400100000FA0
:1006200000040040403802400070004000012000FB
:10063000303802400004024000180240000011104F
:100640000008024000000240204600F0EFBCFA2102
:10065000204600F003BD204600F0C0BC284600F054
:10066000A4BD18B587B06022019000200C4600920E
:100670000290082204906946204601F043F80021C8
:10068000204600F0E3FE08B010BD30B4002513E0B2
:1006900050F8042BD30744BFA9F101039A18091F8E
:1006A000042942F8045BFAD213468C0744BF158034
:1006B0009B1CC90748BF1D7050F8041B0029E7D1D7
:1006C00030BC704780B5032002F033F8002002F000
:1006D00079F801F0FFF8002002BD0000FEB50446E5
:1006E000002000900CB90120FEBD04F144052878DB
:1006F00020B900212046697001F02AF9DFF86C0367
:100700004FF48056026842F480420260006800F4B0
:10071000804001900199DFF858130A6822F4000222
:100720000A600B68206A03430B602068815941F01E
:100730000101815102F066F8074620688259D1070D
:1007400040F18D8002F05EF8C01B40F2F51290423D
:10075000F3D303200021287097E0DFF81823DFF897
:10076000183312189A4238BF46F00C0621BFDFF842
:100770000C733F18DFF8082397420AD3DFF80413FD
:10078000DFF804330818984234BF46F0040646F0F8
:10079000100620684FF4004200210661204600F058
:1007A000B9F800284BD1FF2001F0A2FF60680028B3
:1007B00039D002F027F8074641F2893600F06AF88E
:1007C00002F020F8C01BB04259D200984107F5D57D
:1007D0004FF480520021204600F09CF878BB02F0D4
:1007E00011F8074600F056F802F00CF8C01BB042B2
:1007F00045D200988106F5D56A461021204600F0C2
:100800004DF8E0B90098410747BF4FF40062E2603D
:100810000020E0600099880759BF4FF48041A16033
:100820000022A26014E0A068E2680021C003000C6E
:10083000520340EA1242204600F06CF820B100F06A
:1008400026F801202870FEBD40F6FF7001F050FF31
:10085000002100F01DF8012028700020FEBD06696F
:1008600001F0E5FBDFF82412DFF824220918914299
:1008700026F01C06BFF471AF46F0080689E700F0C9
:1008800006F801200021287003206970FEBD0121B7
:10089000204676E06A4601212046FFE72DE9F04137
:1008A000044604F1440630780F461546822808BFF6
:1008B00002202DD08221BF013170206807F4F86733
:1008C0000169228AD20202F4784201F01C0111432C
:1008D0000F4347F00107076101F094FF804601E0F4
:1008E00020680769F9070CD501F08CFFA0EB080020
:1008F000B0F5803FF4D301200021307003207170E7
:1009000006E022680121506980B228600020317021
:10091000BDE8F081F8B5044604F1440528780E4698
:10092000422801D10220F2BD4221B601297020687F
:1009300092B206F4F8660169238A42612068DB02FC
:1009400003F4784301F01C0119430E4346F00306FB
:10095000066101F057FF074601E021680E69F007C4
:100960000BD501F04FFFC01BB0F5803FF5D3012040
:100970000021287003206970F2BD012200202A7036
:10098000F2BD70B5044629B14FF400604FF48041C8
:10099000E060A160E06925683E4A00282E68A168F1
:1009A000E0680CBF4FF48063002316400E430643FB
:1009B000334343F4007301202B602D6801F098FE4F
:1009C0002068402105604160456800F06BF82168AF
:1009D00000204D608860C8608A694FF6417002400F
:1009E00042F080028A618D6900F05CF82068002185
:1009F0008561C161C56900F055F8216841F21802AE
:100A00002548CD618B58034043F0087343F004033D
:100A100001208B508D5801F06BFE20681F4900F5B6
:100A2000805085610160056800F03CF8206800F5A1
:100A300080500560A169012905D1C26942F4803264
:100A400042F04002C261606915490379427943EA84
:100A500002230B608278C47843780078120442EA5B
:100A6000046242EA032202434A6070BD44380240F5
:100A70000438014040F1E9FD40787D0100796CFCCB
:100A8000005A6202001F0AFA80F0FA0200D3CEFE7A
:100A9000C0E1E4000F8120FF233FDEF88020C10287
:100AA00040800240012001F023BE000038B5040060
:100AB00009D004F16805697809B900F01FF800F061
:100AC0002BF8012801D1012032BD606A08B100F085
:100AD00020F800F00BF822F02A02826000F013F8F0
:100AE000FFE72046BDE8324000F0CEB920684168FB
:100AF00021F490414160206882687047002028708E
:100B0000204600F0CFBF2068016841F0010101607C
:100B10007047204600F054B92421697020680268AB
:100B2000520852000260204600F030B82DE9F04132
:100B300005460E4690461F46069C2868C16931400E
:100B4000B1420CBF0120002040451BD114F1010F20
:100B5000F3D024B101F056FEC01BA042EDD32868AB
:100B60000023016821F4D071016028682021826887
:100B700052085200826005F1680041708170037074
:100B8000032000E00020BDE8F0810000F8B5044635
:100B90007F4827681023002600253968226908400D
:100BA000A168084342EA000160690843E16908431B
:100BB00038607A68E06822F4405202437A60BA688A
:100BC000A169206A22F430620A4302437148BA6084
:100BD000714A97420AD1016801F00301032923D821
:100BE000DFE801F06112022102231DE06B4A974207
:100BF0000CD1006810F00C0077D0042804D008282D
:100C0000F2D00C280FD00FE004230DE064498F428E
:100C10001CD1006810F0300067D01028F4D02028D4
:100C2000E2D0302800D10823E069B0F5004F40F051
:100C3000808043B1012B5AD0022B5BD0042B5ED0B5
:100C4000082B65D06BE001F0F5F95AE055498F4269
:100C500009D1006810F0C00047D04028D4D08028C7
:100C6000C2D0C028CEE7504A97420CD1016811F497
:100C700040713AD0B1F5807FC6D0B1F5007FB3D0D6
:100C8000B1F5407FBEE749498F420ED1006810F4AC
:100C9000406008D0B0F5806FB6D0B0F5006FA3D03B
:100CA000B0F5406FAEE70123BEE741498F420CD15A
:100CB000006810F4405018D0B0F5805FA4D0B0F5B3
:100CC000005F91D0B0F5405F9CE73A4A9742ABD1C4
:100CD000016811F4404108D0B1F5804F94D0B1F5CE
:100CE000004FEED0B1F5404F8CE700239CE701F0B8
:100CF000A9F906E06068304901EB50010CE001F011
:100D000070F961684A0802EB4002B2FBF1F607E0B5
:100D10006068410801F58031B1FBF0F600E0012583
:100D20004FF6F0723240C6F3420002432068C260C0
:100D30002BE043B1012B09D0022B0AD0042B0FD09A
:100D4000082B18D020E001F075F90BE001F07AF9DA
:100D500008E06068194901EB5001B1FBF0F010E0C8
:100D600001F03FF9616800EB5100B0FBF1F0216840
:100D700080B2C86009E06068420802F50042B2FB38
:100D8000F0F080B2F86000E001252846F2BD0000D6
:100D9000F369FFEF9038024000100140004400402A
:100DA00000480040004C004000500040001401404A
:100DB00000780040007C00400048E8010024F40076
:100DC00010B590F82410CA0706D502685368816AE6
:100DD00023F400330B43536090F82420910706D589
:100DE00002685368C16A23F480330B43536090F860
:100DF0002420510706D502685368016B23F4802331
:100E00000B43536090F82420110706D502685368FD
:100E1000416B23F400430B43536090F82420D10628
:100E200006D502689368816B23F480530B4393606B
:100E300090F82420910606D502689368C16B23F4CC
:100E400000530B43936090F82420510610D502689C
:100E50005368016C23F480130B435360036CB3F5A8
:100E6000801F05D15468416C24F4C0040C435460C5
:100E700090F82420110606D501684A68806C22F497
:100E8000002202434A6010BD7CB5054605F16804A6
:100E90000020606001F0B6FC296803460A6810076C
:100EA0000BD56FF07E46002200964FF400112846C5
:100EB000FFF73CFE08B1032076BD202000226070C1
:100EC000A0700020227076BDF8B504008AB008BF7B
:100ED000012050D004F56F75687820B900212046B4
:100EE000297000F010FE032600276E70206800268F
:100EF00001F0C5FC83B000F040F80EBC206801F0A2
:100F000087FC2068002101F0C0FC00211C2000FBB0
:100F100001F2012322443C321170D180491C5370EC
:100F200000230F29D6709760D3605661EFD300215C
:100F300000FB01F2224402F5FE721170491C0F29D8
:100F40005370D6709760D3605661F1D383B000F0D0
:100F500014F80EBC206801F0ACFC84F83860012164
:100F60006970626A012A04BF204601F0A9FD206869
:100F700001F07DFD00200BB0F0BD211D684634223C
:100F800001F0B2BD002201F0F3BD000070B50446CF
:100F900000250CB9012070BD04F13C06706820B931
:100FA000B5602046357000F0ACFC7068C10610D406
:100FB0007268204622F4885242F00202726000F009
:100FC00096F9B560716821F0020141F0010171608C
:100FD00000E0012500203070284670BD0146002049
:100FE00078B500F0B0F801D1022072BD00F0B6F87B
:100FF0001AD500F087F8DFF8F0130B6813F01F0F15
:1010000006D1816811F0405F0ED100F076F80BE058
:10101000DFF8D813884202BFDFF8D403026812F069
:10102000405F01D100F095F8002072BD10B500F1CD
:101030003C010A78012A01D1022010BD00F0ADF870
:1010400000688268D30705D4486820F4885040F0CF
:1010500001004860002200200A7010BDF8B50C465F
:101060000646306806F13C0581684A050AD5806865
:10107000C10507D56A68002042F020026A60287026
:101080000120F2BD01F0BEFB0746306801688A0707
:1010900010D414F1010FF8D024B101F0B3FBC01B40
:1010A0008442F2D26868002140F0040068600320A6
:1010B0002970F2BD6FF012020260686840F400709F
:1010C000686031688A6812F0405F04BFB069002828
:1010D00011D1CA6A12F4700F02D0886841050AD48F
:1010E0006A6822F480726A606868C10403D46A681E
:1010F00042F001026A600020F2BD826842F0804244
:10110000826070475668DFF8EC02064046F480764D
:1011100056605C68600505D5556825F4005545F4B2
:10112000805555605068C40404D5956825F00605BF
:10113000956001E000209060002414706FF022029E
:101140001A6008687047009001F13C021378012B87
:101150007047016841F080410160704701201070C4
:1011600008688368DC0714D48568DFF88C32DFF800
:101170008C6245F0010585601C68B4FBF6F606EB51
:101180004606009602E0009B5B1E00930098002834
:10119000F9D10B689C68E507704701230B70026862
:1011A000946864086400946070470068C06C70477D
:1011B00002460020F8B5009092F83C30012B01D196
:1011C0000220F2BD0725012082F83C000C6813685C
:1011D0008B480A2C18D30A3CDE6804EB4404A54073
:1011E00026EA0505DD600D688C68854204D1DD685E
:1011F00045EA0465DD6017E00A3DDE6805EB45055C
:10120000AC403443DC600FE004EB44041E6905FA93
:1012100004F426EA04041C611C690E688D6806EB60
:101220004606B5402C431C614C681F25072C0CD288
:10123000641E5E6B00F055F85D635D6B4C680E8854
:10124000671E00F049F85D631BE00D2C0CD2E41F13
:101250001E6B00F046F81D631D6B4C680E88E71F7F
:1012600000F03AF81D630CE00D3CDE6A00F039F83E
:10127000DD62DD6A4C680E88A4F10D0700F02CF8E1
:10128000DD625A4DAB4222D10C68574B122C03D170
:101290001D6845F480051D600C68844218BF112C40
:1012A00015D11C6844F400041C600B6883420ED105
:1012B000514D524C2E680A21B6FBF4F44C43009475
:1012C00002E0009B5B1E009300980028F9D10021EA
:1012D000002082F83C10F2BD07EB8707BE40354383
:1012E000704704EB8404A54026EA0505704710B555
:1012F0003D4A136823F440331360146841680C437B
:1013000014600268536823F4807353605168036962
:1013100041EA03215160516821F0407151605368E6
:1013200081680B435360946824F40064946093686C
:10133000C1680B439360846A324B9C4210D0916821
:1013400021F0706191609368816A0B4393609468A7
:1013500024F0405494609368C16A0B43936007E0A3
:10136000936823F070639360916821F0405191601D
:10137000936823F0020393609168836941EA430113
:101380009160016A71B1536843F40063536051681E
:1013900021F4604151605368416A491E43EA413378
:1013A000536003E0516821F400615160D36A23F473
:1013B0007003D362D16AC3695B1E41EA0351D162F3
:1013C000916821F4007191609368016B43EA4123B5
:1013D0009360936823F4806393609168406941EA65
:1013E0008021916010BD00000423014000200140D5
:1013F00008200140FEF9FFFF0C00002040420F00D2
:10140000120000100100000F0220211D68702068EA
:1014100000F03CF801206870002032BD03D1426C1E
:1014200042F400424264016841F001010160002081
:1014300010BD38B5040001D1012032BD00F01EF806
:1014400018B900F017F800F0FBFADDE710B500F06E
:101450000CF800F005F81CBFDFF828108842DDE723
:101460002068DFF824309842704704460122206843
:1014700000F014B9002120462970704704F13C05A2
:10148000687870470004014000000140F0B5764DD7
:101490000668A842754C764B764FDFF8DCC118BF62
:1014A000B0F1804F07D0604518BFB84203D09842D2
:1014B00018BFA0420DD14A6826F070061643A84214
:1014C00018BFB0F1804F17D060451CBFB84298429A
:1014D00012D0A0421CBF694B98420DD0684A90427E
:1014E0001CBF684FB84207D0674B98421FBF674A7E
:1014F0009042674FB84203D1CB6826F440761E4332
:101500004A6926F080061643A84206608B68C362CB
:101510000E68866212BFA04209690163012242611E
:10152000F0BD0000F0B5026A5A4C52085200026247
:10153000076A456886698A680B6827F002072640B3
:1015400017431E43484A90421CBF484B98420BD158
:10155000CA684B6927F0080725F4407517438A6964
:101560001D4327F0040715434560866149684163C0
:101570000762F0BDF0B5026A22F010020262056A4D
:1015800043688469444A0E6825F0200500F064F839
:1015900045EA07151CBF354EB0420DD125F0800538
:1015A000CA684E6945EA02158A6923F44063164306
:1015B00025F0400543EA86034360846149688163FE
:1015C0000562F0BDF0B5026A324B22F4807202620D
:1015D000066A4468C5690A688F6826F400761D406B
:1015E000214B1543984246EA07261CBF1F4A9042EA
:1015F0000DD126F40066CB684F698A6946EA032656
:1016000024F44054174344EA071426F480664460E7
:10161000C5614968C1630662F0BDF0B5026A22F493
:1016200080520262056A4368C4691B4A0E6825F449
:10163000005500F011F845EA07351CBF0B4EB042CB
:1016400004D123F480434A6943EA82134360C461AE
:10165000496801640562F0BD8F681440024A9042F7
:1016600044EA0624704700000000014000040140E5
:10167000000C004000080040000400400040014011
:10168000004401400048014000180040001C004098
:10169000002000408CFFFEFFFF8CFFFE30B5036A88
:1016A00001248C4002FA01F1A3430362056A294335
:1016B000016230BDF0B590F83C20012A01D1022032
:1016C000F0BD0123DFF8FC2180F83C30046894422F
:1016D0001CBFDFF8F471BC426568A66803D14B6893
:1016E00025F470051D438A68096825F0700526F009
:1016F000800600230D4316436560A66080F83C30E9
:101700000020F0BD70B5064606F13C0420780D4679
:10171000012801D1022070BD0121022021706070DA
:1017200052B1042A1CD0082A2FD00C2A41D0102AEA
:1017300054D0142A66D079E030682946FFF7F2FECB
:101740003068816941F0080181613068826922F066
:101750000402826131688B69286903438B6165E00B
:1017600030682946FFF706FF3068816941F400615F
:1017700081613068826922F48062826130688169A7
:101780002A6941EA0221816150E030682946FFF769
:1017900019FF3068C16941F00801C1613068C26950
:1017A00022F00402C2613168CB6928690343CB612E
:1017B0003CE030682946FFF730FF3068C16941F4EA
:1017C0000061C1613068C26922F48062C261306820
:1017D000C1692A6941EA0221C16127E030682946CE
:1017E00000F02AF83068416D41F008014165306829
:1017F000426D22F00402426531684B6D2869034353
:101800004B6513E03068294600F038F83068416DC8
:1018100041F4006141653068426D22F480624265A6
:101820003068416D2A6941EA0221416501200021A9
:1018300060700020217070BDF0B5026A234B22F465
:1018400080320262066A4468456D0A688F6826F431
:1018500000361D401B4B1543984246EA07461CBF05
:10186000194A904204D124F480344B6944EA032499
:1018700044604565496881650662F0BDF0B5026A5D
:1018800022F480120262056A4368446D104A0E68B1
:1018900025F400158F6814400A4A904244EA062451
:1018A00045EA07551CBF084EB04204D123F48023FB
:1018B0004A6943EA8223436044654968C165056219
:1018C000F0BD000000000140000401408FFFFEFF5A
:1018D000FF8FFFFE81B0DFF8B002016841F0805158
:1018E0000160026802F0805200920099426842F45E
:1018F00080424260406800F480400090009901B04E
:10190000704738B586B000F0F9F824689F4DAC42B6
:101910001CD19F48416941F480714161426902F4E0
:10192000807200920099036843F00103036002682B
:101930000823984802F001020092009903220193C3
:1019400000210292039101A900F0D8FD07B030BD3B
:1019500070B586B0044668461421FFF713FB24686F
:101960008D4DAC425BD18A48066846F00076066031
:10197000016801F0007100F054F843F080630360E7
:10198000016801F0806100F04CF843F000630360EF
:10199000016801F0006100F044F843F004030360C3
:1019A000016801F0040100F03CF843F0010303601A
:1019B000016801F0010100F034F843F00203036014
:1019C000016801F0020100F02CF843F040030360CD
:1019D00001683223714801F040010591059A022106
:1019E0000093019100220292032103910B220492A1
:1019F000694600F083FD862100F017F8654800F085
:101A00007DFD4FF4005100F010F8654800F076FDC0
:101A10004FF4205100F009F8624800F06FFD06B065
:101A200070BD0591059A0368704702220091032159
:101A30000192002303910B2202936946049270479E
:101A400081B000685849884209D14F48026842F085
:101A500002020260006800F002000090009901B0EC
:101A6000704770B586B000F049F824684E4DAC421E
:101A700016D147480123066846F002060660016851
:101A8000474801F002010091009A022101930022CF
:101A90000291039201A904920222059200F02EFD08
:101AA00006B070BD38B586B000F028F824683F4D08
:101AB000AC4221D13648016941F4802101610269BB
:101AC00002F4802200920099036843F00803036047
:101AD00002684FF44073364802F008020092009901
:101AE0000222019300210292039107210322059112
:101AF000049201A900F002FD07B030BD044601A820
:101B00001421FFF73FBA38B586B0FFF7F7FF246816
:101B1000B4F1A04F35D11E4C4FF4E853256845F081
:101B20000105256021681B4D284601F00101009147
:101B3000009A022101930291002203920321049151
:101B40000A22059201A900F0D9FC4FF4007100228D
:101B5000019101A902922846039200F0CFFC60682F
:101B600040F080006060616801F0800100910098A1
:101B7000616941F480416161606900F480400090D6
:101B8000009907B030BD00004038024000200140FD
:101B9000303802400000024000800240000802404D
:101BA00000040240001802400004004000480040C9
:101BB000000C02400248016841F4807101607047E6
:101BC000007000402DE9FC4104460025C4B1207896
:101BD000DFF88464C1074BD5B26802F00C02042A16
:101BE00007D0B06800F00C0008280BD171684802DB
:101BF00008D5326891033BD56068002840F0C98061
:101C0000012066E16068B0F5803F0FD038B93168D7
:101C100021F480313160306820F4802009E0B0F593
:101C2000A02F08D1316841F480213160306840F440
:101C30008030306007E0326822F4803232603168F0
:101C400021F480213160606868B100F0DBFD074657
:101C50003168880300F19D8000F0D4FDC01B652829
:101C6000F6D3032035E100F0CDFD0746306881034F
:101C700040F18F8000F0C6FDC01B6528F6D3F0E769
:101C800000F0C0FDC01B022840F2B080E9E7E06828
:101C900080B1316841F00101316000F0B3FD0746C9
:101CA0003068810700F1CC8000F0ACFDC01B022839
:101CB000F6D9D6E7306840084000306000F0A2FD59
:101CC00007463168880766D500F09CFDC01B0228D6
:101CD000F7D9C6E7706F40084000706700F092FDCA
:101CE0000746706F810775D500F08CFDC01B022878
:101CF000F7D9B6E708B9306F09E00528306F06D18B
:101D000040F004003067316F41F0010105E0400808
:101D100040003067316F21F004013167A06841F263
:101D2000893768B100F06EFD8046306F810700F1A1
:101D3000988000F067FDA0EB0800B842F5D390E76B
:101D400000F060FD8046306F810740F18A8000F02E
:101D500059FDA0EB0800B842F5D382E700F052FD30
:101D6000401B022840F294807BE700F04BFD001BF3
:101D7000022840F2A98074E700F044FD044631686F
:101D8000880140F1A58000F03DFD001B0228F6D936
:101D900067E7207881071BD5B26812F00C0F09D0D5
:101DA000B06800F00C0008287FF471AF7168480239
:101DB0003FF56DAF3268910703D5E06801287FF4E5
:101DC0001FAF3168206921F0F80141EAC00131609C
:101DD00021780A070ED5606900283FF47BAF716F48
:101DE00041F00101716700F00DFD0746706F81073A
:101DF0007FF546AF2278500738D5316CCA0009D438
:101E0000306C012540F080503064316C01F080511D
:101E100000910098DFF84C723968C80518D43A6808
:101E200042F480723A6000F0EDFC80463868C105EB
:101E30000ED400F0E7FCA0EB08006528F6D310E70D
:101E40003068216920F0F80040EAC1003060BFE747
:101E5000A06801287FF44EAF306F40F0010030677A
:101E60005CE71DB1306C20F080503064A06978B31D
:101E7000B16801F00C0108293FF4C2AE02283068B5
:101E800020F0807030607FF477AF00F0BBFC054637
:101E900031688A013FF562AFE369206AA26A616A2C
:101EA0000343E06A43EA81135208521E43EA0243A5
:101EB00043EA006343F000537360316841F080717E
:101EC000316000F09FFC0446306881017FF54DAF22
:101ED0000020BDE8F6812DE9F0410400884674D069
:101EE000614E306800F00F00404502D200F06FF8FC
:101EF0006BD12068584D810712D5400703D5A968DA
:101F000041F4E051A9602078010703D5AA6842F4A2
:101F10006042AA60A968A06821F0F0010143A960AD
:101F20002178CA0749D56068012802D129688A0347
:101F300003E0022803D129688A0103D445E02B6815
:101F4000990742D5AA68920840EA8200A86000F08A
:101F500059FC0746A868616800F00C00B0EB810FDF
:101F60002BD000F04FFCC01B41F289329042F1D3DC
:101F7000032020E02078410705D5AA68E06822F414
:101F8000E0520243AA6021780A0706D5A8682169B1
:101F900020F4604040EAC100A86000F022F8AA687E
:101FA00032492E4BC2F30312895CC84018600020EE
:101FB00000F008FC0020BDE8F081306800F00F0060
:101FC0008045D7D200F003F8D4D00120F3E7316880
:101FD000090948EA01113160326802F00F024245F6
:101FE000704730B5234C606800F00C00042802D024
:101FF000082802D019E0204830BD0023226820685C
:1020000025684102C5F3881002F03F024CBF1A490F
:102010001349A1FB000100F0C5FD2168C1F3014196
:10202000491C4900B0FBF1F030BD0D4830BD0B48F4
:102030000068704709480E4A006813680F49C3F3E7
:10204000822206E005480A4A006813680B49C3F378
:102050004232895CC8407047003802400C000020C2
:102060000024F40000700040003C0240282E0008CC
:10207000083802400438024000127A006C2F000831
:102080002DE9FC47064600253078A846DFF85C7449
:10209000C1070AD5BA6822F40002BA60BB68716B46
:1020A0000B43BB60706B00B901253068DFF840441A
:1020B00001030ED5A268F06B22F440120243A26025
:1020C000F06BB0F5801F08BF012502D008B94FF0B2
:1020D00001083068C1020ED5A268306C22F44002BB
:1020E0000243A260306CB0F5800F08BF012502D01A
:1020F00008B94FF001083068C10148BF01258006CA
:1021000034D5396CDFF8EC9341F080513964386C88
:1021100000F0805000900099D9F8000040F48070E1
:10212000C9F8000000F06EFB8246D9F80010C8051F
:1021300000F1ED8000F066FBA0EB0A006528F4D307
:102140000320BCE100F05EFBA0EB090041F2893105
:102150008842C0F0F780F3E7B86820F4F810B86060
:10216000396F306BC0F30B00014339673178C80613
:1021700007D5A26822F08072A260A168B06B01430B
:10218000A1603268510405D5E368706E23F44033D2
:102190000343E36031680A0405D5E368B06E23F4B5
:1021A00040230343E3603168CA0305D5E368F06E5A
:1021B00023F440130343E36031688A0305D5E368E1
:1021C000306F23F440030343E36031784A0605D5BA
:1021D000E368706C9B0840EA8303E36031780A0689
:1021E00005D5E368B06C23F00C030343E36031686A
:1021F000CA0505D5E368F06C23F030030343E360C0
:1022000031688A0505D5E368306D23F0C0030343C8
:10221000E36031684A0505D5E368706D23F44073C7
:102220000343E36031680A0505D5E368B06D23F424
:1022300040630343E3603168CA0405D5E368F06D89
:1022400023F440530343E36031688A0405D5E3680F
:10225000306E23F440430343E36031684A0205D5FE
:10226000E368B06F23F080630343E36031688A0260
:102270000BD5E368F06F23F000630343E360F16F75
:10228000B1F1006F08BF4FF001083068010748BF87
:102290004FF00108400305D5E168706F21F04071EF
:1022A0000143E16031680A0206D5E368D6F8800090
:1022B00023F080530343E36025B93168B1F1007F17
:1022C00040F0A680386820F08060386000F09AFA0C
:1022D00005463968080149D500F094FA401B652885
:1022E000F7D32DE700F08EFA401B6528C0F08C80F4
:1022F00026E700F087FA401B6528C0F093801FE7AF
:1023000000F080FA001B6528C0F0D48018E7386F11
:1023100010F440701EBF316B01F44071884215D03B
:10232000386F396F41F4803139673A6F20F440706B
:1023300022F480323A673867386FC10706D500F05B
:1023400061FA8146386F81077FF5FCAE316B01F48D
:102350004070B0F5407F7FF4FFAEBA68DFF89801B7
:10236000014022F4F8121143B960F9E63178CA0746
:102370000FD5706B68B920682168726800F440302E
:1023800040EA821001F070610843B16840EA0170D0
:1023900020603068020303D5F16BB1F5801F05D0D2
:1023A000C00211D5316CB1F5800F0DD120682168C4
:1023B0007268F36800F08FF82060A068716A4009C5
:1023C000491E41EA4010A0603068C10106D520686E
:1023D00021683369726800F074F820603068810108
:1023E0000BD530697268F168000440EA8210B26867
:1023F00040EA016040EA02702060386840F0806086
:10240000386000F0FFF90546396808017FF56AAFCA
:10241000B8F1000F52D0396821F08051396000F0D6
:10242000F1F90546386881003FF563AF31680A036A
:1024300001D5F06B18B1C90210D5306C70B9606865
:1024400061687269B36900F046F86060A068B16ABB
:1024500020F4F850491E40EA0120A0603068810253
:102460000AD5F26FB2F1006F06D160686168336A15
:10247000726900F026F860603078010713D5606853
:102480006168726901F4403141EA821100F07060C4
:102490000843F16940EA01706060A268F06A22F4C2
:1024A00040320243A260396841F08051396000F047
:1024B000A9F90446386881007FF522AF0020BDE805
:1024C000F6871B0443EA821300F0706001F0E041DC
:1024D00018430843704700F4403040EA821001F08E
:1024E000E04140EA036008437047000000380240C2
:1024F0008438024000700040FFFCFF0F2DE9F847D0
:1025000002460B4600246D480F211D680127A74095
:1025100007EA0508B84540F0C6805D684FEA8409BF
:10252000022D18BF122D11D1E50802EB850C09F020
:102530001C0501FA05F6DCF820E0D3F810A02EEA1D
:1025400006060AFA05F53543CCF8205015684FEA1F
:10255000440C032606FA0CF66FEA060E1E790EEA04
:10256000050506F0030606FA0CF6354315605D68AE
:10257000012D18BF022D03D0112D18BF122D10D11F
:102580009568DE680EEA050506FA0CF63543956097
:10259000556825EA07075D68C5F30015A5402F4378
:1025A0005760D7680EEA07059F6807FA0CF63543AF
:1025B000D5605D68ED0076D50768DFF804C109F0E5
:1025C0000C0901FA09F647F480470760056805F42D
:1025D00080450095009FA7085CF8275025EA060E65
:1025E000384DAA4208BF00252CD0374EB24208BF52
:1025F000012527D0354DAA4208BF022522D0344EEE
:10260000B24208BF03251DD0324DAA4208BF04259F
:1026100018D0314EB24208BF052513D02F4DAA4223
:1026200008BF06250ED02E4EB24208BF072509D09E
:102630002C4DAA4208BF082504D02B4EB2420CBF35
:1026400009250A2505FA09F545EA0E054CF8275033
:10265000264E35686FEA080707EA050C5D68ED034A
:1026600048BF48EA0C0CC6F800C0756807EA050CBC
:102670005D68AD0348BF48EA0C0CC6F804C0B568F5
:1026800007EA050C5D68ED0248BF48EA0C0CC6F885
:1026900008C0F56807EA050C5F68BD0248BF48EA54
:1026A0000C0CC6F80CC0641C0F2C7FF62EAFBDE8D6
:1026B000F18702B909048161704700004438024083
:1026C00008380140000002400004024000080240B7
:1026D000000C0240001002400014024000180240AA
:1026E000001C02400020024000240240003C014047
:1026F00038B5044600F086F814F1010F054602D003
:1027000004480178641800F07DF8401BA042FAD319
:1027100031BD00BF000000200901020006D5244A97
:1027200000F00F00104400F8041C7047214B1954AE
:102730007047214B4FF6FF021968000200F4E06079
:10274000114008431D4908431860704738B51A4BBB
:102750001C68C4F30223C3F10704052C28BF04241A
:102760001D1D072D34BF0023DB1E012505FA04F4CF
:10277000641E2140994005FA03F35B1E1A40114381
:10278000BDE83440C8E7401EB0F1807F10B501D3EA
:10279000012010BD0A4C0F2160604FF0FF30FFF7A1
:1027A000BBFF00220721A2600020216010BD0000B5
:1027B00018ED00E000E400E00CED00E00000FA0598
:1027C00010E000E038B50D4D04462A780C4B18682F
:1027D0004FF47A71B1FBF2F2B0FBF2F0FFF7D3FFE6
:1027E00050B9102C08D2002221464FF0FF30FFF7DD
:1027F000ADFFAC60002032BD012032BD00000020E2
:102800000C00002001484068704700BF0000002015
:102810000EB418B504460898012817D1A16BDFF84B
:10282000900221F48031A163E2680240E260E16835
:1028300021F44011E1600F98012803D1E16841F4CF
:102840008011E160204600F01EF909E0E06840F0E8
:102850004000E060204600F016F94FF48031A1639B
:102860000698012807D1A16841F00601A160A0687F
:1028700040F02000A060002012BC5DF810FB8168D1
:102880004908490081600020704780B5C26801296D
:1028900022F0C042C26005D1C16841F00051C16060
:1028A0003220ECE019B9C16841F08041F7E701201E
:1028B00002BD0EB42DE9F043064604460021002077
:1028C00004EB8102491C0F29C2F80401F8D3A06B64
:1028D00040F40010A063DDF84480B8F1000F0BD184
:1028E000A06B20F40010A063216841F0400121603A
:1028F000226842F080022260002006F560610860D4
:1029000006F500673A683A600C98012805D1099AE3
:10291000002A14BF0121002108E0032805D10998ED
:10292000002814BF0121002100E0032120460025DA
:1029300000F095F81021204600F075F8204600F0D0
:1029400081F800204FF67F3238614FF09043786174
:102950004FF0006CF861314603E035603561401C92
:10296000B260079EB04229D201EB401606F5106610
:10297000D6F800E0BEF1000FEFD5002806BF01F544
:10298000106ECEF800C03360E8E73560C6F81090EE
:10299000401CB260079EB04213D201EB401606F510
:1029A0003066D6F800E0BEF1000FEED5002806BF75
:1029B00001F5306ECEF800C03360E7E700208146B5
:1029C000E8E7386920F4807038610A98012808D156
:1029D000DFF8E01039633A6B42F4803242F00302D0
:1029E0003A63A5616FF08042626118B9A06940F056
:1029F0001000A061A269DFF8C0100A43A2610D981F
:102A000018B1A16941F00801A161B8F1010F05D128
:102A1000A06940F0804040F00400A0610020BDE8C3
:102A2000F0035DF810FB890141F020010161DFF83E
:102A30008C10491E04D002699306FAD40020704716
:102A40000320704710210161DFF87010491E04D087
:102A50000269D306FAD4002070470320704700F5BE
:102A6000006002681143FFE701600020704780B5F5
:102A700000F50060416841F0020141600320FFF76A
:102A800037FE002002BDDFF834201146491E0DD06C
:102A90000369002BFAD5016941F001010161521E61
:102AA00004D00169CB07FAD4002070470320704797
:102AB000BFFFBDFF0001800000383C80410D0300D6
:102AC000016800F57C700122002382600370886930
:102AD00040F0006088614A6D002042F0805242F070
:102AE00003024A6570470000103A07D330B4B1E8DA
:102AF0003810103AA0E83810F9D230BC530724BF80
:102B0000B1E80810A0E8081044BF51F8043B40F8B1
:102B1000043BD20724BF31F8022B20F8022B44BF1C
:102B20000B7803707047121F17D35B0009D151F85F
:102B3000043B20F8023B1B0C121F20F8023BF6D28C
:102B40000BE051F8043B00F8013B1B0A20F8023B64
:102B50001B0C121F00F8013BF3D238BF121D521E8E
:102B600024BF11F8013B00F8013BF8D87047000082
:102B700000B500BF130096469446103928BFA0E860
:102B80000C50FAD85FEA417C28BF0CC048BF40F81F
:102B9000042BC90728BF20F8022B48BF00F8012BDF
:102BA00000BD0000BBBBE1B1B2F5803F80F07E808C
:102BB000022A1ED98C46B1FBF2F102FB11C31B04A1
:102BC00043EA1043B3FBF2FC02FB1C3380B240EA41
:102BD0000343B3FBF2F002FB103240EA0C40002347
:102BE0007047022A05D98446B0FBF2F002FB10C2FE
:102BF00070474AB105D100F0010249085FEA300090
:102C0000704700220023704700F0E4B80B00020078
:102C1000002100207047904271EB030CF6D3B3F50E
:102C2000803F2FD2F0B5B3FA83F7B1FA81F4A7F160
:102C30000F0E3D1B5340CEF1200602FA0EF2F34177
:102C40005340B5F10F0746D80F3C2C444140C4F126
:102C50002006A040F1414140B1FBF3F603FB161101
:102C6000A2FB0645001BA94102D2761E80185941DD
:102C700080EA010221FA0EF362FA0EF200215A40B4
:102C80003046F0BD30B4B1FBF3FC03FB1C11A2FBDA
:102C90000C45001BA94103D2ACF1010C801859412D
:102CA00030BC02460B46604600217047B2F1807F7F
:102CB00065D3F0B5B2FA82F7B1FA81F4C7F10F0625
:102CC0003D1B22FA06F307F1110EF24120355A405E
:102CD000B5F10F07B8D94140C4F12006A040F14139
:102CE0004140B1FBF3FC03FB1C11A2FB0C45001B94
:102CF000A94103D2BCF1010C801859410F2F12D306
:102D00000F3FC90341EA5041B1FBF3F603FB161133
:102D1000A2FB0645D4EBC030A94102D2761E801832
:102D2000594146EACC3C07B34140C7F12006B840C0
:102D3000F1414140B1FBF3F603FB1611A2FB06453E
:102D4000001BA94102D2761E8018594180EA010277
:102D500021FA0EF3C7F1200462FA0EF20CFA07F022
:102D60005A402CFA04F13043F0BD80EA010221FA06
:102D70000EF3002162FA0EF260465A40F0BD8C4616
:102D8000B1FBF2F102FB11C31B0243EA1063B3FB78
:102D9000F2FC02FB1C331B024CEA002043EA1063E6
:102DA000B3FBF2FC02FB1C331B024CEA002043EA9B
:102DB0001063B3FBF2FC02FB1C331B024CEA002045
:102DC00043EA1063B3FBF2FC02FB1C324CEA002026
:102DD000002370477047000010B50E4800230168BB
:102DE00041F4700101600C490A680C4842F001028C
:102DF0000A600B4A8B600C6804404FF000600C6066
:102E000000244A600B6823F480230B60CC600549E2
:102E1000086010BD88ED00E000380240FFFFF6FEBC
:102E20001030002408ED00E0000000000000000069
:102E3000010203040607080930B450F8041B79B1F5
:102E40000268436802440830DC0744BFA9F101046A
:102E5000E31852F8045B43F8045B091FF9D1ECE76F
:102E600030BC704710B5074979441831064C7C4492
:102E7000163404E00A68081D114488470146A1423F
:102E8000F8D110BD2C0000004C0000004EF6885117
:102E9000CEF20001086840F470000860BFF34F8F65
:102EA000BFF36F8F4FF00070E1EE100A7047000023
:102EB000DBD7FFFF540500001000002000000000D9
:102EC00079FFFFFF100000008800000000000020D4
:102ED0000000000000F00DF8002801D0FFF7C2FF4D
:102EE000AFF300800020AFF30080FDF76DF900F034
:102EF00002F80120704700F001B80000074638468C
:102F000000F002F8FBE7000080B5AFF30080024A52
:102F100011001820ABBEFBE7260002007047FEE759
:102F2000FEE7FEE7FEE770477047704700F000B825
:102F30000248416802788A18426070470000002009
:102F40000148804701480047D92D0008612F00083B
:102F50000100000000000000100000000024F40048
:102F6000AFF30080FFF792FFFFF7B4FF000000000F
:102F700001020304FFF7FEBFFFF7FEBFFFF7FEBF2E
:102F8000FFF7FEBFFFF7FEBFFFF7FEBFFFF7FEBF75
:102F9000FFF7FEBFFFF7FEBFFFF7FEBFFFF7FEBF65
:102FA000FFF7FEBFFFF7FEBFFFF7FEBFFFF7FEBF55
:102FB000FFF7FEBFFFF7FEBFFFF7FEBFFFF7FEBF45
:102FC000FFF7FEBFFFF7FEBFFFF7FEBFFFF7FEBF35
:102FD000FFF7FEBFFFF7FEBFFFF7FEBFFFF7FEBF25
:102FE000FFF7FEBFFFF7FEBFFFF7FEBFFFF7FEBF15
:102FF000FFF7FEBFFFF7FEBFFFF7FEBFFFF7FEBF05
:10300000FFF7FEBFFFF7FEBFFFF7FEBFFFF7FEBFF4
:10301000FFF7FEBFFFF7FEBFFFF7FEBFFFF7FEBFE4
:10302000FFF7FEBFFFF7FEBFFFF7FEBFFFF7FEBFD4
:10303000FFF7FEBFFFF7FEBFFFF7FEBFFFF7FEBFC4
:10304000FFF7FEBFFFF7FEBFFFF7FEBFFFF7FEBFB4
:10305000FFF7FEBFFFF7FEBFFFF7FEBFFFF7FEBFA4
:10306000FFF7FEBFFFF7FEBFFFF7FEBFFFF7FEBF94
:10307000FFF7FEBFFFF7FEBFFFF7FEBFFFF7FEBF84
:10308000FFF7FEBFFFF7FEBFFFF7FEBFFFF7FEBF74
:10309000FFF7FEBFFFF7FEBFFFF7FEBFFFF7FEBF64
:1030A000FFF7FEBFFFF7FEBFFFF7FEBFFFF7FEBF54
:1030B000FFF7FEBFFFF7FEBFFFF7FEBFFFF7FEBF44
:1030C000FFF7FEBFFFF7FEBFFFF7FEBFFFF7FEBF34
:1030D000FFF7FEBFFFF7FEBFFFF7FEBFFFF7FEBF24
:1030E000FFF7FEBFFFF7FEBFFFF7FEBFFFF7FEBF14
:0830F000FFF7FEBFFFF7FEBF72
:0400000508002F615F
:00000001FF
