:020000040800F2
:100000002809002055290008312900083329000853
:1000100035290008372900083929000800000000A8
:100020000000000000000000000000003B29000864
:100030003D290008000000003F2900084129000870
:10004000892900088D2900089129000895290008B0
:10005000992900089D290008A1290008A529000860
:10006000A9290008AD290008B1290008B529000810
:10007000B9290008BD290008C1290008C5290008C0
:10008000C9290008CD290008D1290008D529000870
:10009000D9290008DD290008E1290008E529000820
:1000A000E9290008ED290008F1290008F5290008D0
:1000B000F9290008FD290008012A0008052A00087E
:1000C000092A00080D2A0008112A0008152A00082C
:1000D000192A00081D2A0008212A0008252A0008DC
:1000E000292A00082D2A0008312A0008352A00088C
:1000F000392A00083D2A0008412A0008452A00083C
:10010000492A00084D2A0008512A0008552A0008EB
:10011000592A00085D2A0008612A0008652A00089B
:10012000692A00086D2A0008712A0008752A00084B
:10013000792A00087D2A0008812A0008852A0008FB
:10014000892A00088D2A0008912A0008952A0008AB
:10015000992A00089D2A0008A12A0008A52A00085B
:10016000A92A0008AD2A0008B12A0008B52A00080B
:10017000B92A0008BD2A0008C12A000800000000B2
:10018000C52A0008C92A0008CD2A0008D12A00087B
:10019000D52A0008D92A0008DD2A0008E12A00082B
:1001A000E52A0008E92A0008ED2A0008F12A0008DB
:1001B000F52A0008F92A0008FD2A0008012B00088A
:1001C000052B0008092B00082DE9FC4104460025F9
:1001D000C4B12078DFF88464C1074BD5B26802F05F
:1001E0000C02042A07D0B06800F00C0008280BD1DC
:1001F0007168480208D5326891033BD560680028D1
:1002000040F0C980012066E16068B0F5803F0FD002
:1002100038B9316821F480313160306820F48020B1
:1002200009E0B0F5A02F08D1316841F48021316098
:10023000306840F48030306007E0326822F4803269
:100240003260316821F480213160606868B100F06B
:1002500019FA07463168880300F19D8000F012FA10
:10026000C01B6528F6D3032035E100F00BFA0746E2
:100270003068810340F18F8000F004FAC01B6528CC
:10028000F6D3F0E700F0FEF9C01B022840F2B08080
:10029000E9E7E06880B1316841F00101316000F0C8
:1002A000F1F907463068810700F1CC8000F0EAF9E7
:1002B000C01B0228F6D9D6E73068400840003060FD
:1002C00000F0E0F907463168880766D500F0DAF9F2
:1002D000C01B0228F7D9C6E7706F4008400070675E
:1002E00000F0D0F90746706F810775D500F0CAF9A4
:1002F000C01B0228F7D9B6E708B9306F09E0052816
:10030000306F06D140F004003067316F41F00101D9
:1003100005E0400840003067316F21F0040131678B
:10032000A06841F2893768B100F0ACF98046306FBF
:10033000810700F1988000F0A5F9A0EB0800B84211
:10034000F5D390E700F09EF98046306F810740F1C9
:100350008A8000F097F9A0EB0800B842F5D382E755
:1003600000F090F9401B022840F294807BE700F0F7
:1003700089F9001B022840F2A98074E700F082F995
:1003800004463168880140F1A58000F07BF9001B2C
:100390000228F6D967E7207881071BD5B26812F0EA
:1003A0000C0F09D0B06800F00C0008287FF471AF82
:1003B000716848023FF56DAF3268910703D5E06878
:1003C00001287FF41FAF3168206921F0F80141EA6C
:1003D000C001316021780A070ED5606900283FF41A
:1003E0007BAF716F41F00101716700F04BF9074677
:1003F000706F81077FF546AF2278500738D5316C92
:10040000CA0009D4306C012540F080503064316C52
:1004100001F0805100910098DFF84C723968C805EE
:1004200018D43A6842F480723A6000F02BF98046A2
:100430003868C1050ED400F025F9A0EB0800652846
:10044000F6D310E73068216920F0F80040EAC100D7
:100450003060BFE7A06801287FF44EAF306F40F0F6
:10046000010030675CE71DB1306C20F080503064D3
:10047000A06978B3B16801F00C0108293FF4C2AE5D
:100480000228306820F0807030607FF477AF00F091
:10049000F9F8054631688A013FF562AFE369206AE1
:1004A000A26A616A0343E06A43EA81135208521E5A
:1004B00043EA024343EA006343F000537360316848
:1004C00041F08071316000F0DDF804463068810150
:1004D0007FF54DAF0020BDE8F6812DE9F041040025
:1004E000884674D0614E306800F00F00404502D25B
:1004F00000F06FF86BD12068584D810712D5400786
:1005000003D5A96841F4E051A9602078010703D51B
:10051000AA6842F46042AA60A968A06821F0F001CC
:100520000143A9602178CA0749D56068012802D132
:1005300029688A0303E0022803D129688A0103D4C9
:1005400045E02B68990742D5AA68920840EA8200E4
:10055000A86000F097F80746A868616800F00C00F2
:10056000B0EB810F2BD000F08DF8C01B41F2893227
:100570009042F1D3032020E02078410705D5AA68F6
:10058000E06822F4E0520243AA6021780A0706D507
:10059000A868216920F4604040EAC100A86000F02A
:1005A00022F8AA6832492E4BC2F30312895CC84074
:1005B0001860002000F06CF80020BDE8F081306881
:1005C00000F00F008045D7D200F003F8D4D001200E
:1005D000F3E73168090948EA01113160326802F035
:1005E0000F024245704730B5234C606800F00C00A4
:1005F000042802D0082802D019E0204830BD00238A
:100600002268206825684102C5F3881002F03F0285
:100610004CBF1A491349A1FB000100F059F82168A9
:10062000C1F30141491C4900B0FBF1F030BD0D4858
:1006300030BD0B480068704709480E4A00681368CF
:100640000F49C3F3822206E005480A4A006813688E
:100650000B49C3F34232895CC840704700380240FE
:100660000C0000200024F40000700040003C024018
:100670003C280008083802400438024000127A0082
:100680008029000801484068704700BF0000002032
:1006900038B50D4D04462A780C4B18684FF47A7122
:1006A000B1FBF2F2B0FBF2F000F061F950B9102C9E
:1006B00008D2002221464FF0FF3000F03BF9AC6039
:1006C000002032BD012032BD000000200C000020BF
:1006D000BBBBE1B1B2F5803F80F07E80022A1ED91B
:1006E0008C46B1FBF2F102FB11C31B0443EA104339
:1006F000B3FBF2FC02FB1C3380B240EA0343B3FBC2
:10070000F2F002FB103240EA0C4000237047022A4C
:1007100005D98446B0FBF2F002FB10C270474AB123
:1007200005D100F0010249085FEA3000704700225D
:100730000023704700F03AB90B00020000210020AE
:100740007047904271EB030CF6D3B3F5803F2FD284
:10075000F0B5B3FA83F7B1FA81F4A7F10F0E3D1BA0
:100760005340CEF1200602FA0EF2F3415340B5F1A8
:100770000F0746D80F3C2C444140C4F12006A0404E
:10078000F1414140B1FBF3F603FB1611A2FB064514
:10079000001BA94102D2761E8018594180EA01024D
:1007A00021FA0EF362FA0EF200215A403046F0BDF3
:1007B00030B4B1FBF3FC03FB1C11A2FB0C45001B86
:1007C000A94103D2ACF1010C8018594130BC02465A
:1007D0000B46604600217047B2F1807F65D3F0B5CB
:1007E000B2FA82F7B1FA81F4C7F10F063D1B22FA83
:1007F00006F307F1110EF24120355A40B5F10F070B
:10080000B8D94140C4F12006A040F1414140B1FBBC
:10081000F3FC03FB1C11A2FB0C45001BA94103D2F6
:10082000BCF1010C801859410F2F12D30F3FC9039F
:1008300041EA5041B1FBF3F603FB1611A2FB06455A
:10084000D4EBC030A94102D2761E8018594146EA45
:10085000CC3C07B34140C7F12006B840F1414140CC
:10086000B1FBF3F603FB1611A2FB0645001BA941E1
:1008700002D2761E8018594180EA010221FA0EF355
:10088000C7F1200462FA0EF20CFA07F05A402CFA73
:1008900004F13043F0BD80EA010221FA0EF3002199
:1008A00062FA0EF260465A40F0BD8C46B1FBF2F19E
:1008B00002FB11C31B0243EA1063B3FBF2FC02FB11
:1008C0001C331B024CEA002043EA1063B3FBF2FC2A
:1008D00002FB1C331B024CEA002043EA1063B3FB0B
:1008E000F2FC02FB1C331B024CEA002043EA1063BB
:1008F000B3FBF2FC02FB1C324CEA002000237047E1
:100900000901020006D5244A00F00F00104400F847
:10091000041C7047214B19547047214B4FF6FF02BE
:100920001968000200F4E060114008431D490843C3
:100930001860704738B51A4B1C68C4F30223C3F122
:100940000704052C28BF04241D1D072D34BF0023D8
:10095000DB1E012505FA04F4641E2140994005FAC6
:1009600003F35B1E1A401143BDE83440C8E7401E44
:10097000B0F1807F10B501D3012010BD0A4C0F21CA
:1009800060604FF0FF30FFF7BBFF00220721A2603D
:100990000020216010BD000018ED00E000E400E040
:1009A0000CED00E00000FA0510E000E0704730B404
:1009B000002513E050F8042BD30744BFA9F101032D
:1009C0009A18091F042942F8045BFAD213468C07CF
:1009D00044BF15809B1CC90748BF1D7050F8041BFD
:1009E0000029E7D130BC704770B5044600250CB92A
:1009F000012070BD04F13C06706820B9B560204646
:100A0000357000F045FA7068C10610D4726820464F
:100A100022F4885242F00202726000F096F9B5604A
:100A2000716821F0020141F00101716000E00125CF
:100A300000203070284670BD0146002078B500F0D7
:100A4000B0F801D1022072BD00F0B6F81AD500F05E
:100A500087F8DFF8F0130B6813F01F0F06D18168D9
:100A600011F0405F0ED100F076F80BE0DFF8D813FC
:100A7000884202BFDFF8D403026812F0405F01D160
:100A800000F095F8002072BD10B500F13C010A7825
:100A9000012A01D1022010BD00F0ADF80068826883
:100AA000D30705D4486820F4885040F0010048601E
:100AB000002200200A7010BDF8B50C4606463068CA
:100AC00006F13C0581684A050AD58068C10507D54D
:100AD0006A68002042F020026A6028700120F2BD9E
:100AE000FFF7D0FD0746306801688A0710D414F17B
:100AF000010FF8D024B1FFF7C5FDC01B8442F2D22C
:100B00006868002140F00400686003202970F2BD8D
:100B10006FF012020260686840F40070686031682B
:100B20008A6812F0405F04BFB069002811D1CA6A18
:100B300012F4700F02D0886841050AD46A6822F462
:100B400080726A606868C10403D46A6842F0010276
:100B50006A600020F2BD826842F080428260704785
:100B60005668DFF8EC02064046F4807656605C6812
:100B7000600505D5556825F4005545F48055556048
:100B80005068C40404D5956825F00605956001E019
:100B900000209060002414706FF022021A60086830
:100BA0007047009001F13C021378012B70470168F7
:100BB00041F080410160704701201070086883682F
:100BC000DC0714D48568DFF88C32DFF88C6245F0DE
:100BD000010585601C68B4FBF6F606EB4606009638
:100BE00002E0009B5B1E009300980028F9D10B687F
:100BF0009C68E507704701230B70026894686408DD
:100C00006400946070470068C06C70470246002022
:100C1000F8B5009092F83C30012B01D10220F2BDD2
:100C20000725012082F83C000C6813688B480A2CC9
:100C300018D30A3CDE6804EB4404A54026EA050507
:100C4000DD600D688C68854204D1DD6845EA046585
:100C5000DD6017E00A3DDE6805EB4505AC40344336
:100C6000DC600FE004EB44041E6905FA04F426EA94
:100C700004041C611C690E688D6806EB4606B540CD
:100C80002C431C614C681F25072C0CD2641E5E6B24
:100C900000F055F85D635D6B4C680E88671E00F0D0
:100CA00049F85D631BE00D2C0CD2E41F1E6B00F0B5
:100CB00046F81D631D6B4C680E88E71F00F03AF87C
:100CC0001D630CE00D3CDE6A00F039F8DD62DD6A80
:100CD0004C680E88A4F10D0700F02CF8DD625A4D27
:100CE000AB4222D10C68574B122C03D11D6845F43E
:100CF00080051D600C68844218BF112C15D11C683A
:100D000044F400041C600B6883420ED1514D524CD8
:100D10002E680A21B6FBF4F44C43009402E0009BD9
:100D20005B1E009300980028F9D10021002082F872
:100D30003C10F2BD07EB8707BE403543704704EB1C
:100D40008404A54026EA0505704710B53D4A13689E
:100D500023F440331360146841680C431460026844
:100D6000536823F4807353605168036941EA032197
:100D70005160516821F040715160536881680B43A4
:100D80005360946824F4006494609368C1680B43D2
:100D90009360846A324B9C4210D0916821F070615C
:100DA00091609368816A0B439360946824F0405487
:100DB00094609368C16A0B43936007E0936823F0E3
:100DC00070639360916821F040519160936823F0C3
:100DD000020393609168836941EA43019160016A6B
:100DE00071B1536843F400635360516821F460416A
:100DF00051605368416A491E43EA4133536003E03E
:100E0000516821F400615160D36A23F47003D36206
:100E1000D16AC3695B1E41EA0351D162916821F432
:100E2000007191609368016B43EA4123936093687A
:100E300023F4806393609168406941EA8021916066
:100E400010BD0000042301400020014008200140A3
:100E5000FEF9FFFF0C00002040420F0012000010BE
:100E60000100000F81B09248016841F0805101609B
:100E7000026802F0805200920099426842F4804277
:100E80004260406800F480400090009901B07047D3
:100E900038B586B000F0C7F82468864DAC421CD146
:100EA0008548416941F480714161426902F4807270
:100EB00000920099036843F001030360026808236D
:100EC0007E4802F001020092009903220193002162
:100ED0000292039101A900F0FFF807B030BD70B590
:100EE00086B004466846142100F0F0F92468744D79
:100EF000AC425BD17048066846F000760660016837
:100F000001F0007100F054F843F080630360016861
:100F100001F0806100F04CF843F000630360016869
:100F200001F0006100F044F843F00403036001683D
:100F300001F0040100F03CF843F001030360016894
:100F400001F0010100F034F843F00203036001688E
:100F500001F0020100F02CF843F040030360016847
:100F60003223584801F040010591059A022100936F
:100F7000019100220292032103910B2204926946FF
:100F800000F0AAF8862100F017F84C4800F0A4F809
:100F90004FF4005100F010F84B4800F09DF84FF46A
:100FA000205100F009F8494800F096F806B070BDED
:100FB0000591059A0368704702220091032101926E
:100FC000002303910B22029369460492704738B5BF
:100FD00086B000F028F824683D4DAC4221D1364857
:100FE000016941F480210161026902F480220092CA
:100FF0000099036843F00803036002684FF44073EC
:10100000344802F008020092009902220193002164
:1010100002920391072103220591049201A900F095
:101020005BF807B030BD044601A8142100F04EB9AA
:1010300038B586B0FFF7F7FF2468B4F1A04F35D17B
:101040001D4C4FF4E853256845F0010525602168E3
:101050001A4D284601F001010091009A02210193E6
:10106000029100220392032104910A22059201A910
:1010700000F032F84FF400710022019101A90292B0
:101080002846039200F028F8606840F08000606015
:10109000616801F0800100910098616941F480412C
:1010A0006161606900F480400090009907B030BD34
:1010B0004038024000200140303802400000024029
:1010C0000080024000080240000402400018024074
:1010D00000480040000C02402DE9F84702460B464C
:1010E00000246D480F211D680127A74007EA050865
:1010F000B84540F0C6805D684FEA8409022D18BFEC
:10110000122D11D1E50802EB850C09F01C0501FA3E
:1011100005F6DCF820E0D3F810A02EEA06060AFA5D
:1011200005F53543CCF8205015684FEA440C0326EA
:1011300006FA0CF66FEA060E1E790EEA050506F0B1
:10114000030606FA0CF6354315605D68012D18BFDD
:10115000022D03D0112D18BF122D10D19568DE6815
:101160000EEA050506FA0CF635439560556825EA42
:1011700007075D68C5F30015A5402F435760D76882
:101180000EEA07059F6807FA0CF63543D5605D68DF
:10119000ED0076D50768DFF804C109F00C0901FA03
:1011A00009F647F480470760056805F48045009517
:1011B000009FA7085CF8275025EA060E384DAA4282
:1011C00008BF00252CD0374EB24208BF012527D0DA
:1011D000354DAA4208BF022522D0344EB24208BF84
:1011E00003251DD0324DAA4208BF042518D0314E28
:1011F000B24208BF052513D02F4DAA4208BF0625CD
:101200000ED02E4EB24208BF072509D02C4DAA425F
:1012100008BF082504D02B4EB2420CBF09250A2571
:1012200005FA09F545EA0E054CF82750264E3568B3
:101230006FEA080707EA050C5D68ED0348BF48EA56
:101240000C0CC6F800C0756807EA050C5D68AD03B4
:1012500048BF48EA0C0CC6F804C0B56807EA050C9C
:101260005D68ED0248BF48EA0C0CC6F808C0F56896
:1012700007EA050C5F68BD0248BF48EA0C0CC6F8D7
:101280000CC0641C0F2C7FF62EAFBDE8F18702B9AD
:101290000904816170470000443802400838014069
:1012A000000002400004024000080240000C02401E
:1012B000001002400014024000180240001C0240CE
:1012C0000020024000240240003C0140002200F0C7
:1012D00001B8000000B500BF1300964694461039CF
:1012E00028BFA0E80C50FAD85FEA417C28BF0CC0A8
:1012F00048BF40F8042BC90728BF20F8022B48BF7D
:1013000000F8012B00BD00002DE9FC470646002532
:101310003078A846DFF85C74C1070AD5BA6822F4B1
:101320000002BA60BB68716B0B43BB60706B00B9A5
:1013300001253068DFF8404401030ED5A268F06B48
:1013400022F440120243A260F06BB0F5801F08BF88
:10135000012502D008B94FF001083068C1020ED54E
:10136000A268306C22F440020243A260306CB0F5F7
:10137000800F08BF012502D008B94FF0010830687E
:10138000C10148BF0125800634D5396CDFF8EC93E4
:1013900041F080513964386C00F080500090009921
:1013A000D9F8000040F48070C9F80000FFF76AF92E
:1013B0008246D9F80010C80500F1ED80FFF762F908
:1013C000A0EB0A006528F4D30320BCE1FFF75AF92B
:1013D000A0EB090041F289318842C0F0F780F3E7C1
:1013E000B86820F4F810B860396F306BC0F30B00A8
:1013F000014339673178C80607D5A26822F08072A8
:10140000A260A168B06B0143A1603268510405D5A8
:10141000E368706E23F440330343E36031680A04E9
:1014200005D5E368B06E23F440230343E3603168DD
:10143000CA0305D5E368F06E23F440130343E36069
:1014400031688A0305D5E368306F23F44003034312
:10145000E36031784A0605D5E368706C9B0840EA82
:101460008303E36031780A0605D5E368B06C23F0A6
:101470000C030343E3603168CA0505D5E368F06CEB
:1014800023F030030343E36031688A0505D5E36840
:10149000306D23F0C0030343E36031684A0505D58E
:1014A000E368706D23F440730343E36031680A0519
:1014B00005D5E368B06D23F440630343E36031680E
:1014C000CA0405D5E368F06D23F440530343E36099
:1014D00031688A0405D5E368306E23F44043034342
:1014E000E36031684A0205D5E368B06F23F080639A
:1014F0000343E36031688A020BD5E368F06F23F0A1
:1015000000630343E360F16FB1F1006F08BF4FF078
:1015100001083068010748BF4FF00108400305D5B6
:10152000E168706F21F040710143E16031680A02A7
:1015300006D5E368D6F8800023F080530343E360C8
:1015400025B93168B1F1007F40F0A680386820F0FD
:1015500080603860FFF796F805463968080149D57C
:10156000FFF790F8401B6528F7D32DE7FFF78AF8BF
:10157000401B6528C0F08C8026E7FFF783F8401BEE
:101580006528C0F093801FE7FFF77CF8001B6528F3
:10159000C0F0D48018E7386F10F440701EBF316B74
:1015A00001F44071884215D0386F396F41F48031B1
:1015B00039673A6F20F4407022F480323A67386716
:1015C000386FC10706D5FFF75DF88146386F810790
:1015D0007FF5FCAE316B01F44070B0F5407F7FF4D5
:1015E000FFAEBA68DFF89801014022F4F812114307
:1015F000B960F9E63178CA070FD5706B68B9206811
:101600002168726800F4403040EA821001F0706195
:101610000843B16840EA017020603068020303D5D6
:10162000F16BB1F5801F05D0C00211D5316CB1F559
:10163000800F0DD1206821687268F36800F08FF880
:101640002060A068716A4009491E41EA4010A0600C
:101650003068C10106D5206821683369726800F0DE
:1016600074F82060306881010BD530697268F168C8
:10167000000440EA8210B26840EA016040EA027069
:101680002060386840F080603860FEF7FBFF054658
:10169000396808017FF56AAFB8F1000F52D0396898
:1016A00021F080513960FEF7EDFF05463868810072
:1016B0003FF563AF31680A0301D5F06B18B1C90279
:1016C00010D5306C70B9606861687269B36900F0F8
:1016D00046F86060A068B16A20F4F850491E40EAFC
:1016E0000120A060306881020AD5F26FB2F1006F6C
:1016F00006D160686168336A726900F026F860603C
:101700003078010713D560686168726901F440316F
:1017100041EA821100F070600843F16940EA01700B
:101720006060A268F06A22F440320243A260396825
:1017300041F080513960FEF7A5FF0446386881000A
:101740007FF522AF0020BDE8F6871B0443EA821331
:1017500000F0706001F0E04118430843704700F466
:10176000403040EA821001F0E04140EA0360084363
:10177000704700000038024084380240007000408A
:10178000FFFCFF0F38B5040009D004F16805697843
:1017900009B900F01FF800F02BF8012801D1012051
:1017A00032BD606A08B100F020F800F00BF822F0BA
:1017B0002A02826000F013F8FFE72046BDE83240BD
:1017C00000F0CEB92068416821F490414160206862
:1017D00082687047002028702046FFF7F8BB206819
:1017E000016841F0010101607047204600F054B9E2
:1017F0002421697020680268520852000260204665
:1018000000F030B82DE9F04105460E4690461F46DF
:10181000069C2868C1693140B1420CBF01200020FC
:1018200040451BD114F1010FF3D024B1FEF72AFF7C
:10183000C01BA042EDD328680023016821F4D071B9
:10184000016028682021826852085200826005F1F8
:101850006800417081700370032000E00020BDE843
:10186000F0810000F8B504467F4827681023002661
:101870000025396822690840A168084342EA00014E
:1018800060690843E169084338607A68E06822F4D7
:10189000405202437A60BA68A169206A22F4306239
:1018A0000A4302437148BA60714A97420AD10168FB
:1018B00001F00301032923D8DFE801F061120221BE
:1018C00002231DE06B4A97420CD1006810F00C0017
:1018D00077D0042804D00828F2D00C280FD00FE0CD
:1018E00004230DE064498F421CD1006810F03000E1
:1018F00067D01028F4D02028E2D0302800D1082367
:10190000E069B0F5004F40F0808043B1012B5AD020
:10191000022B5BD0042B5ED0082B65D06BE0FEF76A
:101920008BFE5AE055498F4209D1006810F0C00083
:1019300047D04028D4D08028C2D0C028CEE7504A13
:1019400097420CD1016811F440713AD0B1F5807F13
:10195000C6D0B1F5007FB3D0B1F5407FBEE74949AD
:101960008F420ED1006810F4406008D0B0F5806F4F
:10197000B6D0B0F5006FA3D0B0F5406FAEE701234D
:10198000BEE741498F420CD1006810F4405018D096
:10199000B0F5805FA4D0B0F5005F91D0B0F5405FA6
:1019A0009CE73A4A9742ABD1016811F4404108D014
:1019B000B1F5804F94D0B1F5004FEED0B1F5404F66
:1019C0008CE700239CE7FEF73FFE06E060683049A5
:1019D00001EB50010CE0FEF706FE61684A0802EBDD
:1019E0004002B2FBF1F607E06068410801F5803182
:1019F000B1FBF0F600E001254FF6F0723240C6F37D
:101A0000420002432068C2602BE043B1012B09D0A1
:101A1000022B0AD0042B0FD0082B18D020E0FEF7A1
:101A20000BFE0BE0FEF710FE08E06068194901EBC1
:101A30005001B1FBF0F010E0FEF7D5FD616800EB5E
:101A40005100B0FBF1F0216880B2C86009E0606825
:101A5000420802F50042B2FBF0F080B2F86000E00C
:101A600001252846F2BD0000F369FFEF90380240DF
:101A7000001001400044004000480040004C00407D
:101A8000005000400014014000780040007C0040FD
:101A90000048E8010024F40010B590F82410CA07AB
:101AA00006D502685368816A23F400330B43536000
:101AB00090F82420910706D502685368C16A23F480
:101AC00080330B43536090F82420510706D50268F9
:101AD0005368016B23F480230B43536090F8242058
:101AE000110706D502685368416B23F400430B438A
:101AF000536090F82420D10606D502689368816B64
:101B000023F480530B43936090F82420910606D56C
:101B100002689368C16B23F400530B43936090F801
:101B20002420510610D502685368016C23F48013F9
:101B30000B435360036CB3F5801F05D15468416CAF
:101B400024F4C0040C43546090F82420110606D5F8
:101B500001684A68806C22F4002202434A6010BD8A
:101B60007CB5054605F1680400206060FEF78AFD3B
:101B7000296803460A6810070BD56FF07E460022DD
:101B800000964FF400112846FFF73CFE08B10320F1
:101B900076BD202000226070A0700020227076BDEB
:101BA000F8B584B0DFF8B04300F002FA00F087F82F
:101BB00000F0D8F8002201212282E122E7488DF8C6
:101BC000022061600023206080214FF400028DF824
:101BD00000308DF8011020468DF8033004F589653A
:101BE000ADF80430DE4EC4F814D00027A361E361E1
:101BF000226200F0E9F94FF4E1310022D94869602E
:101C000028600C21AA602846EA602A616961AA61FD
:101C1000EA612A626A62FFF7B5FD4FF0A040062133
:101C2000A0640020A0650120E1640222002160661A
:101C3000606704F148006265E1652266A166E166BD
:101C4000A16700F0A9FB68461021FFF73FFBC648DB
:101C500000213060C548B062012271603046B76033
:101C60003161B1613162F162F160F26131637261DF
:101C7000FEF7BAFE01210322019169460092304627
:101C80000297FEF7C3FF06E0D32804D3D4F8C804B4
:101C9000401CC4F8C804304600F029F9B42828676D
:101CA00002D2696F491C6967962802D2A96F491C44
:101CB000A9676428E8D2E86F401CE867EBE700B545
:101CC000B3B006A83021FFF701FB01A81421FFF7EC
:101CD000FDFA12A88421FFF7F9FA00F0BBFBA44833
:101CE000016841F080510160006800F08050009070
:101CF0000099A048026822F4404242F48042026007
:101D00000368012206A803F4404300930099069259
:101D10004FF4800202210D920C91042148220E9171
:101D20000F924FF4A02302210322079310911192E6
:101D3000FEF74AFA0F21022201914FF4805100234D
:101D4000049102920221039301A80593FEF7C5FBBB
:101D500089490022129112A825923192FFF7D4FAF4
:101D600033B000BD70B586B06846142144F28106D8
:101D7000FFF7ACFA8148046844F004040460056885
:101D80007F4C05F004050595059902687D4D42F0EC
:101D900080020260036803F0800300F051F842F013
:101DA00001020260036803F0010300F049F842F009
:101DB00002020260036803F0020300F041F842F0FF
:101DC00008020260036803F0080300F039F842F0EB
:101DD000400202600068002200F040000590059972
:101DE00020463146FFF753FA002240212846FFF7EC
:101DF0004EFA4FF40051644A00F05CF86348FFF774
:101E00006BF9012100220191694600962046029259
:101E100000240392FFF760F94022012300926946F3
:101E20000193284602940394FFF756F98021019408
:101E30000091694602942846FFF74EF906B070BD3E
:101E400005930599026870477FB5044668461021DE
:101E50001125FFF73BFA072100F041F808B10020F7
:101E600003E0192000F0FEFA012004B070BD30B587
:101E700085B0684614210824FFF728FA0094002151
:101E800001250291424C019569462046FFF724F94D
:101E9000002201212046FFF7FAF9192000F0E2FAAA
:101EA0000821032200F006F82046FFF715F901206B
:101EB00005B030BD0091002301926946029370473E
:101EC0007FB50446684610210325FFF7FFF900217E
:101ED00000F005F8401E8041C00F04B070BD01261F
:101EE00002916946009520460196FEF78FBE38B5EF
:101EF0000446FFF7A9FFFFF7BAFF2046FFF7E0FF10
:101F000000F052F800F04CF80028FBD1144D00F01E
:101F100041F800F042F800F047F800F041F80028DE
:101F2000FBD100F037F800F038F800F03DF800F091
:101F300037F80028FBD100F02DF800F02EF800F063
:101F400033F800F02DF80028FBD100F023F8054607
:101F500000F023F8A80832BD1000002000800240E5
:101F6000DC04002000480040002001400100000F78
:101F7000403802400070004000012000303802402C
:101F80000004024000180240000011100008024046
:101F9000000002402846FEF736BE2046FEF774BD1C
:101FA000FA212046FEF788BD2046FEF745BD000019
:101FB00080B50320FEF7B1FC0020FEF769FBFEF7B9
:101FC00051FF002002BD0000FEB504460020009035
:101FD0000CB90120FEBD04F14405287820B9002188
:101FE00020466970FEF77BFFDFF86C034FF48056E4
:101FF000026842F480420260006800F48040019070
:102000000199DFF858130A6822F400020A600B688D
:10201000206A03430B602068815941F0010181511E
:10202000FEF730FB074620688259D10740F18D80CA
:10203000FEF728FBC01B40F2F5129042F3D30320B9
:102040000021287097E0DFF81823DFF81833121802
:102050009A4238BF46F00C0621BFDFF80C733F18D8
:10206000DFF8082397420AD3DFF80413DFF80433BC
:102070000818984234BF46F0040646F0100620685F
:102080004FF4004200210661204600F0B9F8002814
:102090004BD1FF2000F0E6F96068002839D0FEF748
:1020A000F1FA074641F2893600F06AF8FEF7EAFADB
:1020B000C01BB04259D200984107F5D54FF4805269
:1020C0000021204600F09CF878BBFEF7DBFA0746BB
:1020D00000F056F8FEF7D6FAC01BB04245D2009881
:1020E0008106F5D56A461021204600F04DF8E0B98A
:1020F0000098410747BF4FF40062E2600020E060B3
:102100000099880759BF4FF48041A1600022A26066
:1021100014E0A068E2680021C003000C520340EA0A
:102120001242204600F06CF820B100F026F80120A1
:102130002870FEBD40F6FF7000F094F9002100F019
:102140001DF8012028700020FEBD0669FEF771FA17
:10215000DFF82412DFF824220918914226F01C0629
:10216000BFF471AF46F0080689E700F006F80120D9
:102170000021287003206970FEBD0121204676E011
:102180006A4601212046FFE72DE9F041044604F1AB
:10219000440630780F461546822808BF02202DD00D
:1021A0008221BF013170206807F4F8670169228A33
:1021B000D20202F4784201F01C0111430F4347F0B0
:1021C00001070761FEF75EFA804601E020680769B3
:1021D000F9070CD5FEF756FAA0EB0800B0F5803FE2
:1021E000F4D30120002130700320717006E02268D2
:1021F0000121506980B2286000203170BDE8F08173
:10220000F8B5044604F1440528780E46422801D169
:102210000220F2BD4221B6012970206892B206F474
:10222000F8660169238A42612068DB0203F478437F
:1022300001F01C0119430E4346F003060661FEF748
:1022400021FA074601E021680E69F0070BD5FEF779
:1022500019FAC01BB0F5803FF5D30120002128708A
:1022600003206970F2BD012200202A70F2BD70B512
:10227000044629B14FF400604FF48041E060A16052
:10228000E06925683E4A00282E68A168E0680CBF16
:102290004FF48063002316400E430643334343F458
:1022A000007301202B602D6800F0DCF820684021CD
:1022B00005604160456800F06BF8216800204D60C2
:1022C0008860C8608A694FF64170024042F080021F
:1022D0008A618D6900F05CF8206800218561C16128
:1022E000C56900F055F8216841F218022548CD6112
:1022F0008B58034043F0087343F0040301208B50D4
:102300008D5800F0AFF820681F4900F580508561B6
:102310000160056800F03CF8206800F58050056019
:10232000A169012905D1C26942F4803242F040021C
:10233000C261606915490379427943EA02230B605F
:102340008278C47843780078120442EA046242EA50
:10235000032202434A6070BD443802400438014001
:1023600040F1E9FD40787D0100796CFC005A620281
:10237000001F0AFA80F0FA0200D3CEFEC0E1E400AA
:102380000F8120FF233FDEF88020C1024080024001
:10239000012000F067B80000F8B504008AB008BF5B
:1023A000012050D004F56F75687820B900212046CF
:1023B0002970FEF73DFE032600276E702068002678
:1023C00000F09BF883B000F040F80EBC206800F0ED
:1023D0005DF82068002100F096F800211C2000FB29
:1023E00001F2012322443C321170D180491C537008
:1023F00000230F29D6709760D3605661EFD3002178
:1024000000FB01F2224402F5FE721170491C0F29F3
:102410005370D6709760D3605661F1D383B000F0EB
:1024200014F80EBC206800F082F884F838600121AE
:102430006970626A012A04BF204600F07FF92068B3
:1024400000F053F900200BB0F0BD211D6846342286
:1024500000F088B90248016841F48071016070475A
:102460000070004038B50446FEF70CF914F1010F76
:10247000054602D0044801786418FEF703F9401BB2
:10248000A042FAD331BD00BF000000200EB418B541
:1024900004460898012817D1A16BDFF8900221F4B7
:1024A0008031A163E2680240E260E16821F44011FA
:1024B000E1600F98012803D1E16841F48011E160E7
:1024C000204600F01EF909E0E06840F04000E060BE
:1024D000204600F016F94FF48031A16306980128D8
:1024E00007D1A16841F00601A160A06840F020007A
:1024F000A060002012BC5DF810FB8168490849000B
:1025000081600020704780B5C268012922F0C04276
:10251000C26005D1C16841F00051C1603220ECE0D9
:1025200019B9C16841F08041F7E7012002BD0EB43E
:102530002DE9F043064604460021002004EB810209
:10254000491C0F29C2F80401F8D3A06B40F4001015
:10255000A063DDF84480B8F1000F0BD1A06B20F42C
:102560000010A063216841F040012160226842F020
:1025700080022260002006F56061086006F50067B1
:102580003A683A600C98012805D1099A002A14BFCC
:102590000121002108E0032805D10998002814BF73
:1025A0000121002100E003212046002500F095F8DC
:1025B0001021204600F075F8204600F081F8002038
:1025C0004FF67F3238614FF0904378614FF0006CE6
:1025D000F861314603E035603561401CB260079E0A
:1025E000B04229D201EB401606F51066D6F800E09D
:1025F000BEF1000FEFD5002806BF01F5106ECEF832
:1026000000C03360E8E73560C6F81090401CB26047
:10261000079EB04213D201EB401606F53066D6F89D
:1026200000E0BEF1000FEED5002806BF01F5306EC8
:10263000CEF800C03360E7E700208146E8E738695C
:1026400020F4807038610A98012808D1DFF8E01082
:1026500039633A6B42F4803242F003023A63A56177
:102660006FF08042626118B9A06940F01000A0616B
:10267000A269DFF8C0100A43A2610D9818B1A169E0
:1026800041F00801A161B8F1010F05D1A06940F046
:10269000804040F00400A0610020BDE8F0035DF838
:1026A00010FB890141F020010161DFF88C10491E07
:1026B00004D002699306FAD40020704703207047C3
:1026C00010210161DFF87010491E04D00269D306A1
:1026D000FAD4002070470320704700F500600268BC
:1026E0001143FFE701600020704780B500F50060EE
:1026F000416841F0020141600320FFF7B3FE002072
:1027000002BDDFF834201146491E0DD00369002BAD
:10271000FAD5016941F001010161521E04D001693D
:10272000CB07FAD40020704703207047BFFFBDFFDE
:102730000001800000383C80410D0300016800F575
:102740007C700122002382600370886940F0006081
:1027500088614A6D002042F0805242F003024A65CF
:1027600070470000103A07D330B4B1E83810103A7F
:10277000A0E83810F9D230BC530724BFB1E80810E4
:10278000A0E8081044BF51F8043B40F8043BD207CE
:1027900024BF31F8022B20F8022B44BF0B780370C2
:1027A0007047121F17D35B0009D151F8043B20F882
:1027B000023B1B0C121F20F8023BF6D20BE051F833
:1027C000043B00F8013B1B0A20F8023B1B0C121FC4
:1027D00000F8013BF3D238BF121D521E24BF11F87E
:1027E000013B00F8013BF8D87047000010B50E48D7
:1027F0000023016841F4700101600C490A680C482B
:1028000042F001020A600B4A8B600C6804404FF0F2
:1028100000600C6000244A600B6823F480230B6086
:10282000CC600549086010BD88ED00E0003802402A
:10283000FFFFF6FE1030002408ED00E0000000006D
:1028400000000000010203040607080930B450F834
:10285000041B79B10268436802440830DC0744BFB6
:10286000A9F10104E31852F8045B43F8045B091F63
:10287000F9D1ECE730BC704710B5074979441831FD
:10288000064C7C44163404E00A68081D114488474D
:102890000146A142F8D110BD2C0000004C00000000
:1028A0004EF68851CEF20001086840F470000860CE
:1028B000BFF34F8FBFF36F8F4FF00070E1EE100A40
:1028C00070470000EBE0FFFF14050000100000203F
:1028D0000000000079FFFFFF1000000088000000EA
:1028E000000000200000000000F00DF8002801D0DA
:1028F000FFF7C2FFAFF300800020AFF30080FFF7C7
:102900004FF900F002F80120704700F001B8000014
:102910000746384600F002F8FBE7000080B5AFF349
:102920000080024A11001820ABBEFBE7260002001F
:102930007047FEE7FEE7FEE7FEE770477047704727
:1029400000F000B80248416802788A184260704777
:10295000000000200148804701480047ED2700089B
:1029600075290008010000000000000010000000B0
:102970000024F400AFF30080FFF792FFFFF7B4FFED
:102980000000000001020304FFF7FEBFFFF7FEBFD7
:10299000FFF7FEBFFFF7FEBFFFF7FEBFFFF7FEBF6B
:1029A000FFF7FEBFFFF7FEBFFFF7FEBFFFF7FEBF5B
:1029B000FFF7FEBFFFF7FEBFFFF7FEBFFFF7FEBF4B
:1029C000FFF7FEBFFFF7FEBFFFF7FEBFFFF7FEBF3B
:1029D000FFF7FEBFFFF7FEBFFFF7FEBFFFF7FEBF2B
:1029E000FFF7FEBFFFF7FEBFFFF7FEBFFFF7FEBF1B
:1029F000FFF7FEBFFFF7FEBFFFF7FEBFFFF7FEBF0B
:102A0000FFF7FEBFFFF7FEBFFFF7FEBFFFF7FEBFFA
:102A1000FFF7FEBFFFF7FEBFFFF7FEBFFFF7FEBFEA
:102A2000FFF7FEBFFFF7FEBFFFF7FEBFFFF7FEBFDA
:102A3000FFF7FEBFFFF7FEBFFFF7FEBFFFF7FEBFCA
:102A4000FFF7FEBFFFF7FEBFFFF7FEBFFFF7FEBFBA
:102A5000FFF7FEBFFFF7FEBFFFF7FEBFFFF7FEBFAA
:102A6000FFF7FEBFFFF7FEBFFFF7FEBFFFF7FEBF9A
:102A7000FFF7FEBFFFF7FEBFFFF7FEBFFFF7FEBF8A
:102A8000FFF7FEBFFFF7FEBFFFF7FEBFFFF7FEBF7A
:102A9000FFF7FEBFFFF7FEBFFFF7FEBFFFF7FEBF6A
:102AA000FFF7FEBFFFF7FEBFFFF7FEBFFFF7FEBF5A
:102AB000FFF7FEBFFFF7FEBFFFF7FEBFFFF7FEBF4A
:102AC000FFF7FEBFFFF7FEBFFFF7FEBFFFF7FEBF3A
:102AD000FFF7FEBFFFF7FEBFFFF7FEBFFFF7FEBF2A
:102AE000FFF7FEBFFFF7FEBFFFF7FEBFFFF7FEBF1A
:102AF000FFF7FEBFFFF7FEBFFFF7FEBFFFF7FEBF0A
:0C2B0000FFF7FEBFFFF7FEBFFFF7FEBFB0
:040000050800297551
:00000001FF
